:100000000C945E000C9486000C9486000C94860080
:100010000C9486000C9486000C9486000C94860048
:100020000C9486000C9486000C9486000C94860038
:100030000C9486000C9486000C9486000C94860028
:100040000C9486020C9486000C94F6020C94D00258
:100050000C9486000C9486000C9486000C94860008
:100060000C9486000C9486000000000024002700F9
:100070002A0000000000250028002B0004040404CE
:100080000404040402020202020203030303030342
:10009000010204081020408001020408102001021F
:1000A00004081020000000080002010000030407FB
:1000B00000000000000000002803120511241FBEEC
:1000C000CFEFD8E0DEBFCDBF22E0A0EAB1E001C0B3
:1000D0001D92A135B207E1F711E0A0E0B1E0E8ED33
:1000E000FEE002C005900D92A03AB107D9F710E0EA
:1000F000CDE5D0E004C02197FE010E945E05CC351D
:10010000D107C9F70E949C030C945F070C94000070
:1001100090E0FC01EC55FF4F2491FC01E057FF4FAC
:100120003491FC01E458FF4FE491EE23C9F02223FF
:1001300039F0233001F1A8F4213019F1223029F1EE
:10014000F0E0EE0FFF1FEE58FF4FA591B4918FB76F
:10015000F894EC91611126C030953E233C938FBFFB
:1001600008952730A9F02830C9F0243049F780914C
:1001700080008F7D03C0809180008F778093800006
:10018000DFCF84B58F7784BDDBCF84B58F7DFBCF88
:100190008091B0008F778093B000D2CF8091B00073
:1001A0008F7DF9CF3E2BDACFAF92BF92CF92DF9205
:1001B000EF92FF920F931F93CF93DF936C017B011C
:1001C0008B01040F151FEB015E01AE18BF08C017AD
:1001D000D10759F06991D601ED91FC910190F08120
:1001E000E02DC6010995892B79F7C501DF91CF91E3
:1001F0001F910F91FF90EF90DF90CF90BF90AF9045
:100200000895FC01538D448D252F30E0842F90E01C
:10021000821B930B541710F0CF9608950197089501
:10022000FC01918D828D981761F0A28DAE0FBF2FCA
:10023000B11D5D968C91928D9F5F9F73928F90E020
:1002400008958FEF9FEF0895FC01918D828D98178F
:1002500031F0828DE80FF11D858D90E008958FEFCC
:100260009FEF0895FC01918D228D892F90E0805C95
:100270009F4F821B91098F73992708958AEA91E015
:100280000E94320121E0892B09F420E0822F089599
:10029000FC01A48DA80FB92FB11DA35ABF4F2C91FB
:1002A000848D90E001968F739927848FA689B789F2
:1002B0002C93A089B1898C91837080648C93938DE9
:1002C000848D981306C00288F389E02D80818F7D8C
:1002D00080830895EF92FF920F931F93CF93DF9344
:1002E000EC0181E0888F9B8D8C8D98131AC0E88972
:1002F000F989808185FF15C09FB7F894EE89FF8941
:100300006083E889F98980818370806480839FBFDE
:1003100081E090E0DF91CF911F910F91FF90EF90DE
:100320000895F62E0B8D10E00F5F1F4F0F731127EE
:10033000E02E8C8D8E110CC00FB607FCFACFE88929
:10034000F989808185FFF5CFCE010E944801F1CF68
:10035000EB8DEC0FFD2FF11DE35AFF4FF0829FB79D
:10036000F8940B8FEA89FB8980818062CFCFCF938D
:10037000DF93EC01888D8823B9F0AA89BB89E889CD
:10038000F9898C9185FD03C0808186FD0DC00FB673
:1003900007FCF7CF8C9185FFF2CF808185FFEDCFF1
:1003A000CE010E944801E9CFDF91CF910895CF930C
:1003B000DF93FC0101900020E9F73197AF01481B62
:1003C000590BBC018AEA91E00E94D400EC0142E0A2
:1003D00050E068E171E08AEA91E00E94D4008C0F5D
:1003E0009D1FDF91CF91089520914B0230914C02D7
:1003F000232B39F421E0FC018081882361F020E087
:100400000AC0BC0180914702909148020E944F07A8
:1004100021E0892BA1F7822F0895CF93DF93EC0180
:100420008091470290914802009759F0209149022B
:1004300030914A022C173D0720F081E0DF91CF91E7
:100440000895BE016F5F7F4F0E948906009789F073
:100450009093480280934702D0934A02C093490286
:1004600020914B0230914C02232B39F7FC01108272
:10047000E4CF80E0E3CFEF92FF920F931F93CF93EF
:10048000DF9300D0CDB7DEB7EE24E3948AEA91E0A3
:100490000E943201892B59F18AEA91E00E941001F1
:1004A000F82E89831A8200914B0210914C020F5F43
:1004B0001F4FC8010E940D02882399F02091470226
:1004C0003091480280914B0290914C02BE016F5FC7
:1004D0007F4F820F931F0E94580710934C02009386
:1004E0004B028AE0F812D2CFE092A001CFCF0F905A
:1004F0000F90DF91CF911F910F91FF90EF90089592
:100500000E943E0181110C943B0208951F920F92AC
:100510000FB60F9211242F933F938F939F93AF9316
:10052000BF938091A6019091A701A091A801B091DD
:10053000A9013091A50123E0230F2D3758F501962D
:10054000A11DB11D2093A5018093A6019093A70141
:10055000A093A801B093A9018091A1019091A2015B
:10056000A091A301B091A4010196A11DB11D80939A
:10057000A1019093A201A093A301B093A401BF9104
:10058000AF919F918F913F912F910F900FBE0F9040
:100590001F90189526E8230F0296A11DB11DD2CFFA
:1005A0001F920F920FB60F9211242F933F934F93E8
:1005B0005F936F937F938F939F93AF93BF93EF93CB
:1005C000FF938AEA91E00E944801FF91EF91BF9169
:1005D000AF919F918F917F916F915F914F913F91DB
:1005E0002F910F900FBE0F901F9018951F920F9292
:1005F0000FB60F9211242F938F939F93EF93FF9336
:10060000E091BA01F091BB018081E091C001F091CD
:10061000C10182FD1BC090818091C3018F5F8F73E8
:100620002091C401821741F0E091C301F0E0E6554A
:10063000FE4F958F8093C301FF91EF919F918F9112
:100640002F910F900FBE0F901F9018958081F4CFBF
:100650001092AD011092AC0188EE93E0A0E0B0E002
:100660008093AE019093AF01A093B001B093B1011C
:100670008AE091E09093AB018093AA0185EC90E031
:100680009093B7018093B60184EC90E09093B90108
:100690008093B80180EC90E09093BB018093BA0105
:1006A00081EC90E09093BD018093BC0182EC90E0DE
:1006B0009093BF018093BE0186EC90E09093C101BE
:1006C0008093C0011092C3011092C4011092C50121
:1006D0001092C601109248021092470210924A02EC
:1006E0001092490210924C0210924B0290E080E06E
:1006F0000E940D022091470230914802811113C0DF
:100700002115310519F0C9010E9400061092480216
:100710001092470210924C0210924B0210924A0221
:1007200010924902089510924C0210924B026AE115
:1007300071E0C9010C945807789484B5826084BD37
:1007400084B5816084BD85B5826085BD85B58160D5
:1007500085BD80916E00816080936E001092810053
:10076000809181008260809381008091810081600E
:1007700080938100809180008160809380008091CF
:10078000B10084608093B1008091B000816080935B
:10079000B00080917A00846080937A0080917A0022
:1007A000826080937A0080917A00816080937A00E1
:1007B00080917A00806880937A001092C100E09165
:1007C000BA01F091BB0182E08083E091B601F09123
:1007D000B7011082E091B801F091B9018FEC8083EC
:1007E0001092C201E091BE01F091BF0186E08083CA
:1007F000E091BC01F091BD01808180618083E09136
:10080000BC01F091BD01808188608083E091BC01D2
:10081000F091BD01808180688083E091BC01F091FE
:10082000BD0180818F7D808388EC90E00E940D0265
:10083000C2E0D0E08C2FFE01E057FF4F9491FE0103
:10084000E458FF4F2491222399F030E0220F331F08
:10085000F901E859FF4FA591B491F901EE58FF4F06
:10086000259134912FB7F894EC91E92BEC932FBF9D
:1008700060E00E9488002196C730D105D9F68091AA
:10088000A001882309F444C0E0904702F090480298
:10089000E114F10441F0C0914B02D0914C02870168
:1008A000209709F03EC0C2E060E08C2F0E948800D3
:1008B000CF5FC730C9F789E291E00E94F401882335
:1008C00009F468C061E082E00E9488008BE191E059
:1008D0000E94D70190E080E00E940D022091470223
:1008E00030914802811194C02115310519F0C901D8
:1008F0000E940006109248021092470210924C0289
:1009000010924B0210924A02109249021092A001DA
:100910000E943E01882309F4B2CF0E943B02AFCF70
:10092000860168018FEFC81AD80AF8018081082E65
:10093000000C990B0E941B05892B91F72197CE0D76
:10094000DF1D8881082E000C990B0E941B05892B46
:1009500029F0C017D10710F02197F3CFAE014F5FF8
:100960005F4F401B510B50934C0240934B02E016DB
:10097000F10620F4B801C7010E944607E091470242
:10098000F091480280914B0290914C02E80FF91FC0
:10099000108289CF8FE391E00E94F401882339F01F
:1009A00061E083E00E94880081E391E091CF85E5DA
:1009B00091E00E94F401882339F061E084E00E9414
:1009C000880087E491E084CF8BE691E00E94F401F7
:1009D000882339F061E085E00E9488008DE591E090
:1009E00077CF81E891E00E94F401882339F061E03B
:1009F00086E00E94880083E791E06ACF87E991E072
:100A00000E94F401882309F465CF89E891E060CF62
:100A100010924C0210924B026AE171E0C9010E94EF
:100A2000580774CF8091470290914802009711F0C7
:100A30000C940006089591110C942405803219F04D
:100A400089508550C8F708959927882708952F92CF
:100A50003F924F925F926F927F928F929F92AF924E
:100A6000BF92CF92DF92EF92FF920F931F93CF939B
:100A7000DF93CDB7DEB7CA1BDB0B0FB6F894DEBF32
:100A80000FBECDBF09942A88398848885F846E8458
:100A90007D848C849B84AA84B984C884DF80EE80A2
:100AA000FD800C811B81AA81B981CE0FD11D0FB6AB
:100AB000F894DEBF0FBECDBFED010895EE0FFF1F0E
:100AC0000590F491E02D09940F931F93CF93DF933A
:100AD0008230910510F482E090E0E0914F02F091B5
:100AE000500230E020E0B0E0A0E0309799F421150A
:100AF000310509F44AC0281B390B24303105D8F5DB
:100B00008A819B816115710589F1FB019383828341
:100B1000FE0111C04081518102811381481759079C
:100B2000E0F04817590799F4109761F012960C936A
:100B3000129713961C933296CF01DF91CF911F919C
:100B40000F91089500934F0210935002F4CF211596
:100B5000310551F04217530738F0A901DB019A0122
:100B6000BD01DF01F801C1CFEF01F9CF9093500231
:100B700080934F02CDCFFE01E20FF31F819391933B
:100B80002250310939832883D7CF20914D023091EB
:100B90004E02232B41F42091020130910301309346
:100BA0004E0220934D022091000130910101211548
:100BB000310541F42DB73EB7409104015091050134
:100BC000241B350BE0914D02F0914E02E217F30722
:100BD000A0F42E1B3F0B2817390778F0AC014E5FAD
:100BE0005F4F2417350748F04E0F5F1F50934E029A
:100BF00040934D02819391939FCFF0E0E0E09CCF32
:100C0000CF93DF930097E9F0FC01329713821282B1
:100C1000A0914F02B0915002ED0130E020E010971A
:100C2000A1F420813181820F931F20914D023091D8
:100C30004E022817390709F061C0F0934E02E09385
:100C40004D02DF91CF910895EA01CE17DF07E8F555
:100C50004A815B819E0141155105B1F7E901FB8392
:100C6000EA8349915991C40FD51FEC17FD0761F430
:100C7000808191810296840F951FE9019983888371
:100C8000828193819B838A83F0E0E0E012968D91CC
:100C90009C9113970097B9F52D913C911197CD0137
:100CA0000296820F931F20914D0230914E02281719
:100CB000390739F6309751F51092500210924F02D1
:100CC000B0934E02A0934D02BCCFD383C283408128
:100CD0005181840F951FC817D90761F44E5F5F4F8C
:100CE00088819981480F591F518340838A819B8154
:100CF000938382832115310509F0B0CFF093500220
:100D0000E0934F029ECFFD01DC01C0CF138212821F
:100D1000D7CFB0E0A0E0EFE8F6E00C9429058C0115
:100D2000009751F4CB010E9464058C01C801CDB736
:100D3000DEB7E0E10C944505FC01E60FF71F9C01CE
:100D400022503109E217F30708F49DC0D901CD9173
:100D5000DC911197C617D70798F0C530D10530F34D
:100D6000CE0104978617970708F3C61BD70B229767
:100D7000C193D1936D937C93CF010E940006D6CF8F
:100D80005B01AC1ABD0A4C018C0E9D1EA0914F0256
:100D9000B0915002512C412CF12CE12C109731F5DF
:100DA00080914D0290914E028815990509F05CC022
:100DB0004616570608F058C0809100019091010135
:100DC000009741F48DB79EB7409104015091050101
:100DD000841B950BE817F90708F055C0F0934E02F5
:100DE000E0934D02F90171836083A0CF8D919C91B6
:100DF000119712966C90129713967C901397A815E2
:100E0000B90559F56C0142E0C40ED11CCA14DB04CB
:100E100020F1AC014A195B09DA011296159780F0AE
:100E20006282738251834083D9016D937C93E11474
:100E3000F10471F0D7011396FC93EE93129776CFDD
:100E400022968C0F9D1FF90191838083F301EFCFD0
:100E5000F0935002E0934F0269CF4816590608F408
:100E60002C017D01D3019ACFCB010E9464057C0146
:100E7000009749F0AE01B8010E944607C8010E94E0
:100E80000006870153CF10E000E050CFFB01DC01EA
:100E900002C001900D9241505040D8F70895FB01D7
:100EA000DC018D91019080190110D9F3990B0895FF
:100EB000FB01DC0101900D920020E1F7089510E0A4
:100EC000CDE5D0E004C0FE010E945E052196CE353E
:080ED000D107C9F7F894FFCF28
:100ED800000051028000000000006A01D4000101F6
:100EE800B7013201100124010D0A0070726F6365A9
:100EF8007373656420636D643A6C6564313A6F6E30
:100F08000070726F63657373656420636D643A6C17
:100F18006564323A6F6E0070726F636573736564EF
:100F280020636D643A6C6564333A6F6E0070726F5B
:100F380063657373656420636D643A6C6564343A01
:100F48006F6E0070726F63657373656420636D64A0
:100F58003A6C6564353A6F6E0070726F63657373CF
:100F6800656420636D643A616C6C3A6F6666000074
:00000001FF
